:1000000000980002000C0000EF78000000000000E3
:1000100000000000000000000000000000000000E0
:1000200078FFE4B8200118F6D8F99000007F007E30
:1000300007E4F0A3DFFCDEFA758107023466CBEF3C
:10004000CBEBD3940D501E121154E07018121154C2
:100050007401F0120EA31210DE2438F582E434028B
:10006000F583120E2122D2AF0032000226CC75B2E7
:100070008E75B6F9E4F5B743B20143AA01023E44D6
:100080000000000237C8904006E493B41802002232
:1000900053A87F0080FD0000000000020846020B0C
:1000A000C6E86480F8E933E83360110460F0ED33AA
:1000B000EC337009E8FCE9FDEAFEEBFF220460DEA8
:1000C000D3EB9FEA9EE99DE8C2E78CF0C2F795F07A
:1000D000400CE8CCF8E9CDF9EACEFAEBCFFB120BF5
:1000E0009185D0F05804700320D5B3E80470075010
:1000F00002B2D5020BD092D5EC0460F7E4CCC0E09C
:10010000C398F8603B94186008400DD0E0FB020BE8
:10011000A8E4FBFAC9FC8028E830E406E4C9FBE463
:10012000CAFCE830E305E4C9CACBFCE85407601018
:10013000F8C3E913F9EA13FAEB13FBEC13FCD8F15B
:1001400030F52FC3E49CFCEF9BFFEE9AFEED99FD8A
:10015000D0E0FBEF4E4D4C701222DB03020BCDECD6
:100160002CFCEF33FFEE33FEED33FDED30E7EB0219
:100170000BA8EF2BFFEE3AFEED39FDD0E0FB50135C
:100180000BBB0003020BD0ED13FDEE13FEEF13FFCC
:10019000EC13FC020BA8EC4D6011E8497017ED332D
:1001A000EC3304600DE4FCFFFEFD22E933E8330488
:1001B00070F8020BC6120B9158046009E4CC24813C
:1001C0005006285009020BD0284003020BCDC0E096
:1001D000EB4A7044B98006D0E0FB020BBCEF4E70D6
:1001E0001CBD8008EBFFEAFEE9FD80EBE98DF0A481
:1001F000FEE5F0020A5FE9CDF9EAFEEBFFEF89F0D8
:10020000A4FCE5F0CE89F0A42EFFE435F0CD89F012
:10021000A42DFEE435F08067EF4E7005BD80D780D9
:10022000C3EF8BF0A4ACF0EE8BF0A42CFCE435F023
:10023000F8EF8AF0A42CE5F038FCE433CB8DF0A481
:100240002CFCE5F03BF8EE8AF0A42CFCE5F038F845
:10025000E433CF89F0A42CFCE5F038CF3400CE890C
:10026000F0A42FFFE5F03EFEE433C98DF0A42EFE8E
:10027000E5F039CD8AF0A42FFFE5F03EFEE43DFD28
:1002800033D0E0FB50070BBB000F020BD0EC2CFC73
:10029000EF33FFEE33FEED33FD020BA8020BD0EC83
:1002A0005D046005E859047003020BC6120B9158F7
:1002B0000460F6EC4860F2EC7004FDFEFF22C860BA
:1002C000DB2481C85009C39860025006020BCD9808
:1002D00050CAF582E9294B4A7005AB82020BBC7506
:1002E000F0007C1A7880C3EF9BEE9AED99400DC325
:1002F000EF9BFFEE9AFEED99FDE842F0DC23ACF0B7
:10030000D0E0FFD0E0FED0E0FDAB8220E7101BEB99
:1003100060BAEC2CFCEF33FFEE33FEED33FD020B45
:10032000A8E803F830E705C0F075F000EF2FFFEE06
:1003300033FEED33FD40B830E7C280AA75F020806F
:100340000E75F010800575F0087D007E007F00338B
:1003500092D530D503120DECEC334010EF33FFEEA5
:1003600033FEED33FDEC33FCD5F0ED22E5F0247ED9
:10037000A2D513CC92E7CDCEFF22EDD2E7CD33EC60
:100380003392D524814006E4FFFEFDFC22FCE4CF3D
:10039000CECDCC24E0501174FF80EDC3CC13CCCD76
:1003A00013CDCE13CECF13CF0470F030D5DE020DB7
:1003B000ECE9D2E7C933E833F892D5EDD2E7CD3393
:1003C000EC33FC5002B2D522EC30E7100FBF000C2A
:1003D0000EBE00080DBD00040BEB6014A2D5EB139C
:1003E000FCED92E7FD2274FFFCFDFEFF22E480F8A5
:1003F000A2D574FF13FC7D80E480EFBB01068982E7
:100400008A83E0225002E722BBFE02E32289828A2D
:1004100083E49322BB010CE58229F582E5833AF55A
:1004200083E0225006E92582F8E622BBFE06E92594
:1004300082F8E222E58229F582E5833AF583E493A6
:1004400022BB010689828A83F0225002F722BBFE7A
:1004500001F322F8BB010DE58229F582E5833AF527
:1004600083E8F0225006E92582C8F622BBFE05E9A2
:100470002582C8F222EF8DF0A4A8F0CF8CF0A4283A
:10048000CE8DF0A42EFE22BC000BBE0029EF8DF015
:1004900084FFADF022E4CCF875F008EF2FFFEE33C7
:1004A000FEEC33FCEE9DEC984005FCEE9DFE0FD576
:1004B000F0E9E4CEFD22EDF8F5F0EE8420D21CFE4A
:1004C000ADF075F008EF2FFFED33FD4007985006B3
:1004D000D5F0F222C398FD0FD5F0EA22C2D5EC3058
:1004E000E709B2D5E4C39DFDE49CFCEE30E715B20C
:1004F000D5E4C39FFFE49EFE120C67C3E49DFDE4B8
:100500009CFC8003120C6730D507C3E49FFFE49E78
:10051000FE22C5F0F8A3E028F0C5F0F8E5821582C8
:1005200070021583E038F022A3F8E0C5F025F0F062
:10053000E582158270021583E0C838F0E82275F074
:1005400008758200EF2FFFEE33FECD33CDCC33CCD8
:10055000C58233C5829BED9AEC99E58298400CF5F3
:1005600082EE9BFEED9AFDEC99FC0FD5F0D6E4CE21
:10057000FBE4CDFAE4CCF9A88222B800C1B9005955
:10058000BA002DEC8BF084CFCECDFCE5F0CBF97822
:1005900018EF2FFFEE33FEED33FDEC33FCEB33FBB6
:1005A00010D703994004EB99FB0FD8E5E4F9FA2240
:1005B0007818EF2FFFEE33FEED33FDEC33FCC9333B
:1005C000C910D7059BE99A4007EC9BFCE99AF90F03
:1005D000D8E0E4C9FAE4CCFB2275F010EF2FFFEE6F
:1005E00033FEED33FDCC33CCC833C810D7079BECBA
:1005F0009AE899400AED9BFDEC9AFCE899F80FD532
:10060000F0DAE4CDFBE4CCFAE4C8F922C3E49FFFBE
:10061000E49EFEE49DFDE49CFC22EB9FF5F0EA9E47
:1006200042F0E99D42F0EC6480C864809845F02275
:10063000EB9FF5F0EA9E42F0E99D42F0E89C45F020
:1006400022ECF0A3EDF0A3EEF0A3EFF022A8828558
:1006500083F0D083D082120E44120E44120E441244
:100660000E44E473E493A3C583C5F0C583C8C58273
:10067000C8F0A3C583C5F0C583C8C582C822A42518
:1006800082F582E5F03583F58322EF4E6012EF604C
:10069000010EEDBB010B89828A83F0A3DFFCDEFA39
:1006A0002289F05007F709DFFCA9F022BBFEFCF31A
:1006B00009DFFCA9F022F583E0F8A3E0F9A3E0FA52
:1006C000A3E0FB9002C9E0FCA3E0FDA3E0FEA3E0F1
:1006D0002275F002120E5E75F087E0FCA3E0FDEFDC
:1006E000A4245FF582E5F03400F5832275F0021250
:1006F0000E5EE0FCA3E0FD75F087EFA42471F582A7
:10070000E5F03400F583EE75F002020E5E903105DF
:10071000C39BFBEE9AFAED99F9EC98F8E493FE741A
:100720000193FFE4FCFDC3020E1075F002EBA4245C
:100730002FF582E5F03400F583E0FCA3E0FDEB75D6
:10074000F002A42429F582E5F03400F5832275F047
:1007500087EEA424C2F582E5F03400F583E5822F0C
:10076000F582E43583F583E4F075F087EEA424CBBD
:10077000F582E5F03400F583E5822FF582E43583D8
:10078000F58322E0FEA3E0FF9003E8E0FD75F002B0
:10079000A42495F582E5F03400F583EE8FF0120C79
:1007A000F275F002EDA42495F582E5F03400F583AE
:1007B000229003D5E0FF75F087A42483F582E5F04D
:1007C0003400F583229003D4E0FE75F087A4244D15
:1007D000F582E5F03400F583EF75F002020E5EF568
:1007E00083E0FCA3E0FDEF75F002A4243BF582E575
:1007F000F03400F583229003E8E0FD75F087A4242F
:10080000A7F582E5F03400F58322E4900027F0900C
:1008100002B7F09002ECE09002B8F054F0FFF02242
:10082000EF75F002A42471F582E5F03400F583221F
:10083000C39BFBEE9AFAED99F9EC98F82275F087D4
:10084000E0FCA3E0FDEFA4244DF582E5F0340022A6
:10085000C3E0FDEF9D7480F86E9822E04401F0E45F
:10086000900027F09002B7229003D5E025E024D72E
:10087000F582E43403F58322E0FEA3E0C39DFFEE9E
:100880009C229003E8E0FF75F08722F0A3F0A3F02C
:10089000A3F0A32275F002EDA4242FF582E5F03435
:1008A00000F583E0FEA3E0FF75F002ED2224F4F5ED
:1008B00082E43401F58322F583E493FC740193FD13
:1008C00075F002EFA422CBEFCBEBD394032275F0AB
:1008D00002EDA42435F582E5F03400F583E0FAA3B7
:1008E000E0FBEA229003E8E0FF24F7F582E434011C
:1008F000F5832274FA2EF582E43401F58322FFEBAE
:1009000025E025E022F583E4F07F01229003F0E06A
:10091000FF24C2F582E43400F58322ECF0EDA3F06D
:100920009003E9E004F022E0FEA3E0FFD3940AEE96
:1009300064809480229003EBE0FEA3E0FF22E0FCC1
:10094000A3E0FD75F08722E04406F09000277401D3
:10095000F022EE8FF0120CF275F08722EF25E024E2
:10096000DDF582E43403F58322C28A9002ECE09044
:1009700002B8F02274282BF582E43402F583227445
:100980007F2BF582E43402F5832274CF2BF582E4C9
:100990003402F5832274A82BF582E43402F5832215
:1009A00074112BF582E43402F58322740E2BF58248
:1009B000E43400F5832274352BF582E43402F583A8
:1009C0002274B92BF582E43402F5832274062EF5E5
:1009D00082E43402F5832275F087A424C2F582E50F
:1009E000F034002275F002A424E2F582E5F034012F
:1009F00022F583ECF0A3EDF022F074CB2FF582E426
:100A00003400F58322C3EF94F6EE6480947F229045
:100A10000205E0640122E4F0A3F075F08722E4907F
:100A200001FEF090029DF0229003F0E0FF75F002CD
:100A300022E0FCA3E0FD75F002229003E8E0FD75E2
:100A4000F087229003E8E0FF75F087227F0B123ECB
:100A500084E4900028F075992722F074FB2EF5822B
:100A6000E43401F583E4F0229002B8E09002ECF067
:100A700022FFE0FCA3E0FD22E0FCA3E0C3940AEC2B
:100A80006480948022902EC3F0A37409F022E0FFCA
:100A90009003D7E0FEEFC8EEC80822A42473F582C5
:100AA000E5F03400F583E022902EC5E4F0902ECDE1
:100AB000F0A3F022F582E43402F583229404E0648A
:100AC0008094802275F002EC020E5EF0ECA3F0ED53
:100AD000A3F022902EC6F0902EC57401F022E0FE05
:100AE000A3E0FF7C00020CBCEEA42471F582E5F0CB
:100AF000340022E0FCA3E0FDEC22E0FEA3E0FFD303
:100B0000229003E9E0FF9003E8E022E0FEA3E0FF8B
:100B1000C322F09001FFF090029EF0229003E8EFD4
:100B2000F01211C4F583E0FEA3E07803CEC313CE28
:100B300013D8F99003EFF0E4A3F09003EAF09003E8
:100B4000E9F09003E9E0FFC3940940030214F6EFD3
:100B5000700C9003ED7404F0A37406F0801B9003F6
:100B6000ED7404F09003E8E0B402069003ED740520
:100B7000F09003EDE02407A3F0121062121004C0FD
:100B800083C0829003E9E0FED082D083120EB112BE
:100B90000EE61210589003EBF0A3EFF01210C4E031
:100BA000601A75F087EF120F85C083C0829003E949
:100BB000E0D082D083120EE7E4F0A3F012111512F8
:100BC0003F209003ED121030504312111512121AEB
:100BD000120F85C083C0829003E9E0FCD082D083ED
:100BE000120EE7121132120F84EC120EE71212DA13
:100BF000940FEE64809480400302146BC3EF94F171
:100C0000EE6480947F40030214BA02149612111508
:100C1000123F209003EF1210305004A3E004F012B2
:100C20001115C394FCEE6480947F50069003EAE0B3
:100C300004F01211EF60030214BA123F209003EE89
:100C4000121030501E121062120EC0C083C082906B
:100C500003E9E0FED082D083120ECCECF0A3EDF0DD
:100C60000214BA12111512121A120F85C083C08213
:100C70009003E9E0FCD082D083120EE71211321209
:100C80000F84EC120FB9121107402612121A120F1C
:100C900085C083C0829003E9E0FCD082D083120E2D
:100CA000E71211F6ED1210041212A4E475F001809F
:100CB000261211E55024121062120F85C083C082E3
:100CC0009003E9E0FED082D083120EE7E4F0A3F0B7
:100CD000120ED774FFF5F0120CF21210621210040B
:100CE000C083C0829003E9E0FED082D083120EB1AF
:100CF000120EE6121058FE9003E8E0120F96C08321
:100D0000C0829003E9E0D082D083120EE7EEF0EFCC
:100D10001210FE0213221211EF70389003E8E0FF68
:100D200024061211AFE0702B74062F1211AF74015C
:100D3000F0E49003E9F0121062120EC0C083C0828A
:100D40009003E9E0FED082D083120ECC1210FBE0BB
:100D5000B409E39003EAE0C3940440379003E8E069
:100D6000FF123CD39003E8E0FF123A1CEF602CE442
:100D70009003E9F0121062120EC0C083C08290038B
:100D8000E9E0FED082D083120ECC1210FBE0B40951
:100D9000E380089003E8E0FF123EA29003F0E0C376
:100DA000940440371210C4E07031123CAF9003E855
:100DB000E0FF123B41EF602BE49003E9F012106278
:100DC000120EC0C083C0829003E9E0FED082D083BF
:100DD000120ECC1210FBE0B409E3229003E8E0FF0E
:100DE000123E9322E49003D9F0FF1233A67F011242
:100DF00033A69003D7E4F0A37404F090036BE014DF
:100E0000607C1470030216731470030216C8147009
:100E1000030217601470030217752405600302189B
:100E2000429003CE120E2D00000000E49003BAF0B1
:100E3000A3F0A3120E2D000000009003B0E0FFA36A
:100E4000E09003C0CFF0A3EFF09003B0E0FFA3E089
:100E50009003C2CFF0A3EFF012261CA3F0A3F090F2
:100E600003AEE0FFA3E09003CCCFF0A3EFF0123F7E
:100E7000087F327E00123C3A90036B7401F0122618
:100E800024123C89EF70030218421218487402F0D1
:100E900002184212253C940AEE648094804013129A
:100EA000261C9003B7E004F070139003B6E004F042
:100EB000800B1226C2500612261C122646122591BD
:100EC00070069003BAE004F0123C89EF7003021838
:100ED000421225F5120D5A9003C0EEF0A3EFF090E8
:100EE000036B7403F00218429003B0E0FEA3E02409
:100EF000B4FFEE34FBFE9003D5F0A3EFF0123F20D9
:100F0000C3EF9403EE648094805025E49003BAF01C
:100F1000A3F0A3120E2D00000000122624123F0899
:100F20007F0A7E00123C3A90036B7404F002184270
:100F30009003D5E0FEA3E0FF1225589405EE6480EF
:100F40009480401412261C90036DE024FFF090035F
:100F50006CE034FFF0A38022C3EF94FBEE64809436
:100F60007F400302184212261C90036DE004F070CB
:100F70000690036CE004F090036D122663021842A1
:100F8000122624123C89EF7003021842121848748A
:100F900005F002184212253C940AEE6480948040C9
:100FA0001312261C9003B7E004F070139003B6E010
:100FB00004F0800B1226C2500612261C122646127E
:100FC000259170069003BAE004F0123C89EF70039B
:100FD0000218421225F5120D5A9003C2EEF0A3EF4B
:100FE000F01225D4E4FBFAF978401209767BA07A56
:100FF00070797678C2120885120B5A9003C8EEF009
:10100000A3EFF09003C21225D7ECC0E0EDC0E0EEF4
:10101000C0E0EFC0E09003C81225D7D0E0FBD0E0DD
:10102000FAD0E0F9D0E0F8120976ECC0E0EDC0E0CB
:10103000EEC0E0EFC0E01225D4122671D0E0FFD060
:10104000E0FED0E0FDD0E0FC120A7F120B5A9003C4
:10105000CCEEF0A3EFF090036B7406F09003D9741C
:1010600001F09003D9E0FF22123F087F057E0012B5
:101070003C3A90036B221223A4E49003D5F0900035
:1010800026E0FF9003D5E0C39F4003021AD3E0FFA0
:1010900012104CE4F0A3F012113CE4F0A3F0900322
:1010A000E3F0A3F0A3F0A3F0A37409F0EF70030240
:1010B0001ACA12203C9003D5E0FF1212FCE4900300
:1010C000D6F09003D6E0FFC3940940030219FB1247
:1010D00011EF60069002A1E0601A900027E0701402
:1010E0009002B7E0700E9003D5E0120F96120FB881
:1010F000E4F0A3F09003D6E0FF70030219F290032E
:10110000D5E0FE120F96120FB8E0FCA3E0C39406E0
:10111000EC64809480501C75F087EE120F99C083A8
:10112000C0829003D6E0D082D083120EE7E4F0A311
:10113000F0803A120F91C083C0829003D6E0FED0B7
:1011400082D083120EE7121258502275F087EFA456
:101150002483F582E5F03400120EE4C083C0827D62
:10116000021212BED082D083EEF0A3EFF09003D52E
:10117000E0FF75F08712127BFCA3E0FD12113CEC3E
:101180008DF0120CF2120F91C083C0829003D6E052
:10119000D082D083120EE712111EEF12127BFEA333
:1011A000E02DFFEE3CFE9003D5E0FD12104C121135
:1011B00032ED120F99C083C0829003D6E0D082D066
:1011C00083120EE71212EB9003E4E09FEE6480F8C6
:1011D0009003E3E064809850129003D6E0FD900302
:1011E000E3EEF0A3EFF09003E7EDF09003D5E0120B
:1011F0000F96C083C0829003D6E0D082D083120EB7
:10120000E7E0FEA3E0FF9003E6E02FF09003E5E0C7
:101210003EF09003D6E004F00218A29003E3E0FA57
:10122000A3E0FBC39003E6E09BF09003E5E09AF0B7
:101230007D071212BE9003E5EEF0A3EFF0C3EB9F23
:10124000FFEA9EFED3EF9402EE648094804039A3BF
:10125000E064096033121048C083C082E0FEA3E05E
:10126000FF9003E3E0FCA3E0FDC3EF9DFFEE9CD005
:1012700082D083F0A3EFF09003E5E0FEA3E0FF123D
:101280001048EE8FF0120CF29003D5E0FF12104CD4
:10129000E0FCA3E0FDEF120F1FECF0A3EDF09003D4
:1012A000D5E0FF12113DE0FCA3E012109F242FF5C2
:1012B00082E5F034001211D19003F9E0602C900324
:1012C000D5E0B4010F120F1FE0FFA3E090027ACF28
:1012D000F0A3EFF09003D5E0B4020F120F1FE0FF70
:1012E000A3E0900209CFF0A3EFF09003D5E004F063
:1012F00002185EE4900200F0229003D5747EF0E4C0
:10130000A3F0900026E0FE9003D6E0FFC39E4003CA
:10131000021CB6123B79EF60031211FE9003D6E077
:10132000FA12108DE06003021B929003D6E0FF12C8
:1013300011C4120FBFE0FEA3E0C39DEE9C404C9091
:1013400003D6E09003D5F012108D7401F09001FEE9
:10135000E004F090029DF09003D6E0FF24FA121012
:10136000D67401F0123EC09003D6E0FF123ECF903B
:1013700003D6E0FF123D3F9003D6E0FF123D879079
:1013800003D6E01210C97401F08012CFEACF123AEE
:1013900092EF60099003D6E01210C9E4F09003D6F2
:1013A000E0FF123BAEEF7003021CADE49001FF02C0
:1013B0001CA89003D6E0FF75F002A424EEF582E5A8
:1013C000F03401120FBFE0FEA3E0C39DEE9C50037A
:1013D000021C729003D6E09003D5F0123ACDEF7064
:1013E00003021CADE4FF9003D6E0FE75F087120EF9
:1013F000C0120FB812111E1212C8120FB6ECF0A3D1
:10140000EDF00FEFB409DF9003D6E012108DE4F099
:10141000900027E0FF70099002B7E07003021CC43F
:10142000EF601F9002B7E06019120FEABF2003D3EC
:101430008001C34005E49002B8F09002B8E0440592
:101440008048900027E0601F9002B7E07019120FEB
:10145000EBBF2003D38001C34005E49002B8F090B5
:1014600002B8E044018023900027E070779002B733
:10147000E06071120FEABF2003D38001C34005E48E
:101480009002B8F09002B8E04404F09002ECF0C290
:101490008A229003D6E0FF12108DE4F0123EED9008
:1014A00003D6E0FF123D1B9003D6E0FF123EDE9014
:1014B00003D6E0FF123D639003D6E024FA1210D663
:1014C0007401F09001FFE004F090029EF09003D6CA
:1014D000E004F0021AE29003D5E0FF900203E06F0F
:1014E0006002EFF022E49003D6F09003D6E0FFC351
:1014F00094094003021E7CEF902EC87014E0545FE4
:10150000F0A3746AF0902EC3744AF0A37401F080C3
:1015100009E044F0F074201212659003D6E0903098
:10152000F493902ECAF0E49003D5F0900026E0FFEB
:101530009003D5E0FEC39F4003021E7374A42E12D5
:101540001294E0FF9003D7F0E4F5E2EFC394085063
:101550003B74151212B3C083C08212126E8002C394
:1015600033D8FCD082D083F0902ECD7401F0C083AC
:10157000C082E0FFC8EEC8088002C333D8FCD08226
:10158000D083F0902EC074C1F0021DF49003D7E018
:1015900024F8F074161212B3C083C08212126E8047
:1015A00002C333D8FCD082D083F0902ECE7401F0E9
:1015B000C083C082E0FFC8EEC8088002C333D8FCF5
:1015C000D082D083F0902ECB74F4F0EEB4030B9065
:1015D0002EC97420F07480121265EEB40616902E97
:1015E000C97430F0902E4E7404F0902EC37440F005
:1015F000A37408F0EEB40716902EC97431F0902E43
:101600004F7404F0902EC37470F0A37408F0902E01
:10161000C074C2F0E4FFFE900000742EF0A3E4F06A
:101620009003D5E024A4121294E09003D7F0E5E2F1
:1016300020E20B0FBF00010EEF64C84E70D953E2D9
:10164000FB1212889003D7E0FD75F002A4FFAEF004
:10165000900001E02FF0900000E03EF0ED90312985
:1016600093FF900000E475F002120D0885F082F5FA
:101670008312101DF583C083C0829003D6E0D08210
:10168000D083120EE7ECF0A3EDF09003D5E004F068
:10169000021D0B9003D6E004F0021CCA90020074F5
:1016A00001F022900214E06003021F1A04F0E4FF2C
:1016B000900026E0FEEFC39E5047EF25E02459F549
:1016C00082E4343112109724E8F582E5F0340112F7
:1016D00011D1EF25E02439F582E43431121097124C
:1016E00011C81211D1EF25E02479F582E4343112CA
:1016F000109724EEF582E5F034011211D10F021E8D
:10170000909001E4A3E09002E7F09001E6A3E0905E
:1017100002E8F090029A1212D3900317F0EDA3F0B2
:1017200090000B1212D3900319F0EDA3F090027CFD
:101730001212D390030BF0EDA3F09002E7E0FF7ECE
:10174000009001E4E07003A3E06F60089001E4EE14
:10175000F0A3EFF09002E8E0FF7E009001E6E07079
:1017600003A3E06F60089001E6EEF0A3EFF09002B3
:101770009AE0FEA3E09002CD1212516F7002EC6E5F
:10178000600890029AECF0A3EDF090000BE0FEA34D
:10179000E090020E1212516F7002EC6E6008900021
:1017A0000BECF0A3EDF090027CE0FEA3E0FF9002D2
:1017B000A2E0FCA3E0FD6F7002EC6E600890027C7A
:1017C000ECF0A3EDF09002E6E0B4AA0312376B90C0
:1017D00002FCE0FFB410089003FA7410F0800AEFE6
:1017E000B420069003FA7420F09002FFE0B41007D2
:1017F000E4F090028F04F0900300E07011A3E0B4D5
:10180000100CE4900300F0A37410F012386E9003F3
:101810000AE0FFB4100BE4900290F090030AF0800D
:1018200011EFB4200DE490030AF090029004F0123E
:101830002C2B900309E0FFB4100FE490020BF09002
:101840000309F090029F04F022EFB4200EE490030D
:1018500009F090020B04F09002BCF0229003E8EF34
:10186000F09003EC7408F0E49003E9F09003E9E0F1
:10187000FFC3940940030221F2EF60421211EF709E
:101880003D121223121026F583C083C0829003E913
:10189000E0FED082D083120EB1120EE6ECF0A3ED82
:1018A000F09003E8E0120FDBC083C0829003E9E010
:1018B000D082D083120EE7E4F0A3F00221E91212E5
:1018C00023120EC0C083C0829003E9E0FED082D014
:1018D00083120EE712101D120EE4121058FE900330
:1018E000EAF0A3EFF0123F209003EC121030400317
:1018F0000221751212E11211B7120F56E0B401184D
:101900009003E8120FA812111EEE120EC0120FB8AB
:10191000ECF0A3EDF00221C29003EAE0FEA3E0FFA9
:10192000120FD6C083C0829003E9E0FCD082D0833E
:10193000120EE7121132ED120FDE1212A41211076D
:101940004023120FD6C083C0829003E9E0FCD0820E
:10195000D083120EE71211F6ED120EC01212A4E49B
:1019600075F001802A1211E550789003E8E0FF122B
:101970000FDBC083C0829003E9E0FED082D08312E7
:101980000EE71211F6120EBF120EE674FFF5F012FA
:101990000CF20221C2121223121026F583C083C05A
:1019A000829003E9E0FED082D083120EB1120EE6DF
:1019B000ECF0A3EDF09003E8120F94C083C0829086
:1019C00003E9E0FED082D083120EE71212584012D3
:1019D00075F087EF1211BAF583E5822E120F5B7452
:1019E00001F01212E1FE1211B7120F56E0640170FD
:1019F00018120F49E004120F48E0D39405400A90F2
:101A000003E9E0FF120F2EE4F09003E9E004F00296
:101A1000204C22E4FE900026E0FFEEC39F4003022C
:101A200023A11210D3E06401600302239D74F42EFD
:101A300012108FE0FC60030222C7EE6401704E12A8
:101A40000FF3BF2003D38001C34005E49002B8F038
:101A500090029EE0FD6401701B90029DE09002B830
:101A6000B40109E0440912103E04801512103B1223
:101A700012F28016ED9002B8B4020BE04405121089
:101A80003E12123A800412103BF0121248EE640229
:101A90006003022396120FF3BF2003D38001C340DB
:101AA00005E49002B8F090029EE0FD6401701C9085
:101AB000029DE09002B8B40106121127E48021E0F3
:101AC000440412103E1212F2022393ED9002B8B4B5
:101AD0000205E044058003E04404F0E4900027F0B0
:101AE0009002B7F0022393EC64016003022396EEA8
:101AF00064017060120FF3BF2003D38001C340055F
:101B0000E49002B8F090029DE0FFB4020B9002B89E
:101B1000E0440A12112A8013EF640170269001FF3D
:101B2000E09002B8B4010C121127E49002B712122F
:101B30003A801EE0440212112AE49002B7F012111A
:101B4000FF800E9002B8E0440212112AE49002B71E
:101B5000F0121248EE6402705D120FF3BF2003D33F
:101B60008001C34005E49002B8F090029DE0B40209
:101B7000139002B8E0440AF09002B77401F09000AC
:101B800027F0802F9001FEE06401701C90029EE01F
:101B90009002B8B40105E044098013E04408121033
:101BA0003E04F01211FE800B9002B8E044081210BF
:101BB0003E04F01212481210D3E4F0C28A0E022141
:101BC000F57F0522E49003E9F0A3F09003ED74049F
:101BD000F02405A3F01229A8E49003E8F09003E8AC
:101BE000E0FFC3940940030224BC1210001212113A
:101BF000120EBF121058FE9003EBF0A3EFF0123F4D
:101C0000209003ED121030501D9003EAE004F0A381
:101C1000120F6312110740030224551211E540030D
:101C20000224920224799003E9E004F01211EF609B
:101C3000030224929003EBE0FEA3E0FF123F20900A
:101C400003EED3121031401B9003E8E0FF75F00261
:101C5000120EC0E0FCA3E0FD121000ECF0A3EDF0CA
:101C60000224929003EB120F631212DA9464EE6472
:101C700080948040199003E8E0FD75F002120F8512
:101C8000E4F0A3F0ED121001E475F0018021C3EF40
:101C9000949CEE6480947F50199003E8E0FF75F007
:101CA00002120F85E4F0A3F012100074FFF5F01299
:101CB0000CF29003E8E0FF121001121211120EBF95
:101CC000121058FE9003E8E075F002120F99EEF042
:101CD000A3EFF09003E8E004F00223BD9003E9E0F5
:101CE000C3940440028029C390010DE090010C12BE
:101CF000129C4022900194E090019312129C401695
:101D0000900086E09404900085E064809480400612
:101D10009002057401F09003EAE0C3940640379006
:101D20000205E06031E4FF123CF7E4FF123A57EF9E
:101D30006029E4900205F09003EFF0900026E0FFA8
:101D40009003EFE0FEC39F50121211ACE4F0900339
:101D5000EFE004F080E5E4FF123EB1229003B6E02C
:101D6000FEA3E0FF9003B0E0FCA3E0C39FFFEC9E66
:101D7000FE9003D5F0A3EFF09003B3E02FF09003B3
:101D8000B2E03EF0E0FEA3E0FFD3222FFFEC3EFEE8
:101D9000E0FCA3E02FFFEC3EFE22E4900375F0A3ED
:101DA000F0900371E0FFA3E0CF900377F0A3EFF092
:101DB000229003BCE0F8A3E0F9A3E0FAA3E0FB90D3
:101DC00003B0E0FEA3E0FFE4FCFDEB2FFFEA3EFEE4
:101DD000ED39FDEC38FC9003BC120E219003BBE002
:101DE00004F022900371E0FEA3E0FFE4FCFDF9F8AB
:101DF000C3020DFA9003C0E0FCA3E0FDE4020B2156
:101E0000900377E0FEA3E0FFC3900372E09FFF9092
:101E10000371E09E229003BAE0FEA3E0FBCAEECA83
:101E2000E4F9F8A3E0FCA3E0FDA3E0FEA3E0FF22B9
:101E3000E49003A9F0A3F0900378E022E49003B2C9
:101E4000F0A3F0229003B0E0FFA3E09003B6CFF040
:101E5000A3EFF0229003D7E0FEA3E0FF9003AAE0F7
:101E60002FF09003A9229003B7E024FFF09003B66F
:101E7000E034FFF022F0902EC47408F0902EC3746A
:101E800040F022E09003D3F090036CE09003D2F096
:101E900022C8ECC8C9EDC9CAEECACBEFCB227599EE
:101EA00027902ECB74F4F0229FFFEC9EFE9003D778
:101EB000F0A3EFF022900371E0FEA3E0FFE4FCFD4D
:101EC00022F0902EC67416F02224FFF0900377E0E3
:101ED00034FFF022900377E004F022E0FCA3E0FD61
:101EE000EC22C3EF94F6EE6480947F22C0E0C083BE
:101EF000C082C0D0E8C0E0E9C0E0EAC0E0EBC0E0EA
:101F0000EDC0E0EEC0E0EFC0E0D2AFE5DB30E41DB5
:101F10009003F71238F6E4F0E5DB30E10280389008
:101F200002E4E5DFF0900365E4F002282FE5DB3002
:101F3000E5169002E11238F6E06005E4F002282F81
:101F40009003F7E4F002282F900367E4F0E5DB301C
:101F5000E12EE5DB30E00FA31238BE1238C7120BBA
:101F6000F4F5DF02282F900366E06408600302287E
:101F70002F308A0302282FD28A9002ECF002282FF9
:101F8000900365E0700EA3E5DFF09003651238F66C
:101F9000F002282F900366E09034AB93FFB4FF0F5C
:101FA0009002E4E5DFF0900366E004F0022829EFF8
:101FB000640F702F9003681238BE900366E0FF1222
:101FC00038FD540F120C219003681238BE9003663E
:101FD000E0FF04F01238FDFFE5DF54F04F120C2152
:101FE0000228299003681238BE1238C7E5DF120CA8
:101FF00033900366E0FDB43419900317E09002CDEE
:102000001238D4900318E0FBEBFF9002CDEEF0A362
:10201000EFF0EDB43614900319E090020E1238D4AC
:1020200090031AE090020E1238DC900366E0B428A8
:102030001890030BE07F00FE9002A2F0A3EFF09057
:10204000030CE09002A21238DC9002E3E004F07589
:10205000DBFFD0E0FFD0E0FED0E0FDD0E0FBD0E041
:10206000FAD0E0F9D0E0F8D0D0D082D083D0E032FE
:102070001225E0FE9003D5F0A3EFF0D390029BE091
:102080009F90029AE09E40239003D5E0FEA3E0FFDC
:10209000123F20CCEECCCDEFCD90029AE0C313FEE0
:1020A000A3E013FFD3ED9FEC9E5006900370E06019
:1020B00013122F45122F4B122F451225E09003D5F6
:1020C000F0A3EFF09003D51225649400EE648094A1
:1020D00080400280047E007F00900375EEF0A3EF45
:1020E000F0900290E07013900375F0A3F0A3E0FF6E
:1020F000A3E0900371CFF0A3EFF090028FE07006A1
:102100009002A7E0601012257AE490028FF090020E
:10211000A7F0900210F090029AE0FEA3E0FF900377
:1021200075E0FAA3E0FBD39FEA9E404F90038174D1
:1021300001F0A3120E2D00000000E4900386F09041
:10214000037004F09003ADE07018900378E024323F
:10215000FE900377E034009003ABF0A3CEF0A374BD
:1021600001F09002A0E0705D90020BE0600690022A
:10217000827401F09002A07401804590000BE0FE93
:10218000A3E0FFC3EB9FEA9E503BE4900381F090F5
:102190000377E0FFA3E09003ABCFF0A3EFF0E4A35D
:1021A000F0900370E06002E4F09002A0E0B401154A
:1021B00090020BE060069002827401F0E49002A0AD
:1021C000F090027EF0022E459003F37402F0E4904A
:1021D00003F0F09003F0E0FFC394094003022AEEFD
:1021E00075F002120EBF75F002121020F583121066
:1021F00058FE9003F1F0A3EFF0123F209003F3128A
:1022000010304003022A8C1210ECE0B4013275F059
:1022100002EF120F99E0FEA3E0C3941EEE648094D7
:10222000804003022ABC9003F0E075F002121026F1
:10223000F58375F002120EBAECF0A3EDF0022ABCA1
:102240009003F1E0FEA3E0FF9003F0E0FD75F002E3
:10225000120FDEEE8FF0120CF275F002ED120FDEAF
:102260001212DA9402EE64809480401C9003F0E035
:10227000FD75F002120FDEE4F0A3F075F002ED122E
:102280000EC0E475F001801FC3EF94FEEE648094ED
:102290007F5049121208120FDEE4F0A3F075F0022D
:1022A000120EBF74FFF5F0120CF2803012120812F9
:1022B0001026F583121211120EBFECF0A3EDF012EE
:1022C0001208120F99E0FCA3E0C3941EEC64809402
:1022D00080400974C22F1210F37401F09003F0E0F3
:1022E0001210F1E0B4011E9003F0E0FF24CB1211B4
:1022F000DDE0041211D9E0D3940540091210ECE49A
:102300001211D9E4F09003F0E004F00229B3229016
:10231000020DE024FE6021146027147003022BB923
:10232000147003022BC624046003022C2A90020DB1
:102330007402F0E490029CF090020D7403F0022D00
:1023400045121CC5900200E0606D90029CE004F014
:10235000E49003D4F0900026E0FF9003D4E0C39F04
:102360005055E4FF120FA512111E1212C8120FB61B
:10237000ECF0A3EDF0120FA512111EEE120EC0121A
:102380000FB8ECF0A3EDF00FEFB409D89003D4E050
:10239000FF120FC7E4F0A3F0EFB40107E49002EFDF
:1023A000F0A3F0EFB40207E49002F1F0A3F0900381
:1023B000D4E004F0022B3590029CE0C39403500358
:1023C000022C2A900021747EF0E4900201F0900229
:1023D0009CF090020D7404F0221215C4EF606B9013
:1023E000020D7405F022123622123E29900028E0D8
:1023F00070031235A9900291E07003121CC51236C9
:1024000022900200E06040121856123622E4900337
:10241000D4F0900026E0FE9003D4E0FFC39E501954
:102420001239061239509003D4E0FF12331C1236D1
:10243000229003D4E004F080D9123BE3121AD9129F
:1024400021F390020DEFF012326E22122681902FAE
:1024500058E0540F44F0902EC81226A1902EC97453
:1024600028F0A3743F122655902ECC7448F09003A8
:102470006D7480F090036C7409F0A31226639003CE
:102480006C7409F0A37480F0902EC5E4F0902ECD0A
:10249000F0A3F0902E4C7404F0902E4BF0E49003D7
:1024A0006EF0A3F09003D5F0122F4B9003D5E0040B
:1024B000F0E0C3940840F11225817B507AC31225C5
:1024C000C3500C90036E744EF0A37420F080437BD5
:1024D000C87AAF1225C3500C90036E743AF0A374FF
:1024E00098F0802E1226957B407A9C1225CE500CB7
:1024F00090036E7427F0A37410F080161226957B5B
:10250000B87A881225CE500A90036E7413F0A37423
:1025100088F090036E1225E3FEF0A3EFF0EE122593
:1025200089E49003ADF0900373E0FFA3E09003799A
:10253000CFF0A3EFF09003711225D7ECC0E0EDC00F
:10254000E0EEC0E0EFC0E09003731225D7122671D1
:10255000D0E0FFD0E0FED0E0FDD0E0FC120A7F909A
:10256000037B020E217E017FE07D007B017A0079F2
:1025700029120E6A12399AE4900214F09002CDF0FA
:10258000A37482F090029AE4F0A37482F07C007D40
:102590005AFF7E00120C557D64120C6790020EEEFD
:1025A000F0A3EFF090000BEEF0A3EFF07C007D3C89
:1025B000120C557D64120C6790027CEEF0A3EFF0D4
:1025C0009002A2EEF0A3EFF0121E83E4FE9000262C
:1025D000E0FFEEC39F5079E4FF75F087EE120F85A0
:1025E000120FB81211F6EEA424B9F582E5F034000A
:1025F000120F56E4F075F087EEA424A7F582E5F0FB
:102600003400120FB6E4F0A3F0120F2EE4F00FEF37
:10261000640970C5CFEECF123EA2123EB11211ACCA
:10262000E4F0123EC0123EDE123ECF123EED74F4D4
:102630002E12108FE4F01210D3E4F09001FD747E9E
:10264000F0E4A3F0A3F090029DF0A3F00E022DADF4
:10265000E4900205F0900203747EF0900021F0E413
:10266000900202F0229003D97414F0A37432F09017
:102670000377E0FEA3E0FF900371E0FCA3E0C31248
:102680002688123F209003D9E0FDC3EF9D7480F8A7
:102690006E98502F1226341225619464EE64809453
:1026A00080400C12261004F070031226B48011C36F
:1026B000EF949CEE6480947F50061226101226A997
:1026C000023EFCC39003D7E06480948050147F6482
:1026D0007E00123C12123DABEF7003022F44122514
:1026E0008122123EFC900370E0605990029BE0242E
:1026F0009EFF90029AE03402FED39003D8E09F90B0
:1027000003D7E09E405E900377E0FEA3E0FF9003D6
:10271000ABE0FCA3E012268812263C12256194321D
:10272000EE64809480400B12261004F07003122691
:10273000B422C3EF94CEEE6480947F50271226100B
:102740001226A922122634E03EF0D3A3E0940A9088
:1027500003A9E064809480400BE412261404F07016
:10276000031226B422122F4B122F4B12267E122652
:10277000A2902ECA743FF0902EC97428122655904C
:102780002E4C7402F0902E4BF0902ECE7410F090E0
:102790002EC57418F0902EC074C2F0902EC0E020A8
:1027A000E7F9902EC0E4F0902ECBF0902E18E0FECA
:1027B000A3E0FF9003A7E0FD25E025E02487F58254
:1027C000E43403F583EEF0A3EFF0902E16E0FEA3C1
:1027D000E0FFED25E025E02489F582E43403F5836C
:1027E000EEF0A3EFF09003A7E004F0E05407F0E46C
:1027F000FFFE900387E0FCA3E02FFFEE3CFE90037A
:102800008BE0FCA3E090038F12256B9003931225BD
:102810007090039712257090039B12257090039F70
:10282000E0FCA3E09003A312256B90036EE0FCA3F1
:10283000E0FDC3EF9DFFEE9C900371F0A3EFF0303D
:10284000880375993722758A50538AEF9003F6747E
:1028500011F09003F57422F09003F87433F0759939
:102860006F759A90E4FFFEC29600000020970ED28A
:10287000960000003097069003F67487F00FBF00B3
:10288000010EEF640A4E70DFE4FEFFC29600000006
:1028900020940ED2960000003094069003F67487C0
:1028A000F00FBF00010EEF640A4E70DF7590FF75E8
:1028B000992F759AD0000000000000000000E4FE8F
:1028C000FF3094063096032097069003F57487F046
:1028D0000FBF00010EEF640A4E70E6758B03E4F53E
:1028E0008D758EFF758DE0F5AD75AED875AF1DF5A4
:1028F000AC7589FF75913C759927F59675931CF514
:102900009BF595F592F59A75800CC289D28A900351
:10291000F904F0223F3F3F3F3F3F3F3F3F0032003F
:1029200032177002580004001E01F40032000F003C
:1029300064000A0258000C000C00000000000000B7
:102940000000000001000001010B0C0D0E0F050638
:102950000708090A0003040102005000500050005B
:1029600050005000500050005000500050005000E7
:1029700050005000500050005000550055005500C8
:10298000550055005500550055005500550055009F
:1029900055005500550055005500460046004600BC
:1029A00046004600460046004600460046004600F7
:1029B000460046004600460046002D002D002D0032
:1029C0002D002D002D002D002D002D002D002D009F
:1029D0002D002D002D002D002DE49003D6F0FF904A
:1029E00003D5F0EF14601E14603514604C14605B66
:1029F000240470749003D77401F0A3742FF0A374AF
:102A000058F00232421238BB900001120BF4FED390
:102A1000941F40031238E5120BDB6E704B8043129B
:102A200038BB900002120BF4FED394064003123818
:102A3000E5120BDB6E703180291238BB9000031257
:102A40000BF4FE120BDB6E701F80171238BB900068
:102A500004120BF4FE648B60031238E5120BDB6E7C
:102A600070069003D5E004F00FEF640560030231B7
:102A7000C39003D5E0B40504A37401F09003D6E03D
:102A8000FD60079002F9E0547FF0CFEDCF22900275
:102A90000BE0606A900282E060649002A0E0602A2D
:102AA00012114B540FFFF0BF0803D38001C3401233
:102AB0009002B8E0B40203D38001C34005E4900261
:102AC000B8F09002B8E04420802812114B540FFF58
:102AD000F0BF0803D38001C340129002B8E0B402F3
:102AE00003D38001C34005E49002B8F09002B8E03F
:102AF0004410F09002ECF0E4900282F0C28A90025E
:102B0000BCE0B4011890027EE0B4010C121149E45B
:102B1000F07420F09002ECF0E49002BCF090029F80
:102B2000E0601890027EE0B4010C121149E4F074E8
:102B300010F09002ECF0E490029FF022CDEFCD1265
:102B40001074120F22E0FAA3E0C39FEA9E4036758C
:102B5000F002ED120F22121083A42435F582E5F065
:102B60003400F583EEF0A3EFF0121074120F22E0A0
:102B7000FAA3E0C39FFFEA9EFE75F002ED120FCAB2
:102B8000EEF0A3EFF0ED6401701B75F002ED120F93
:102B9000CA1210BD9002EFF0EBA3F01210AE90023B
:102BA000F3F0EBA3F0ED6402701B75F002ED120F71
:102BB000CA1210BD9002F1F0EBA3F01210AE900219
:102BC000F5F0EBA3F02212267EE4F5E2902EC97414
:102BD00020F09003D3E0902EC3F09003D2E0902E2B
:102BE000C4F0902E4C74021226A1902EC57410F0E1
:102BF000EF902ECEB401057410F08002E4F0902E18
:102C0000C074C2F0E4FDFCE5E220E20B0DBD000162
:102C10000CBC07F3BDD0F053E2FB902EC5E4F0905E
:102C20002ECEF0EF902E18B40109E0FFA3E0900340
:102C3000AE8007E0FFA3E09003B0CFF0A3EFF090E9
:102C40002ECBE4F030880375993722023B08E493D9
:102C5000A3F8E493A34003F68001F208DFF480298F
:102C6000E493A3F85407240CC8C333C4540F44207E
:102C7000C8834004F456800146F6DFE4800B01026D
:102C800004081020408090352BE47E019360BCA3A3
:102C9000FF543F30E509541FFEE493A360010ECFBB
:102CA00054C025E060A840B8E493A3FAE493A3F8E5
:102CB000E493A3C8C582C8CAC583CAF0A3C8C582A5
:102CC000C8CAC583CADFE9DEE780BE00000000FF96
:102CD000FFFFFF0000FFFFFFFFFFFFFFFFFF00FF01
:102CE000FF0000FFFF000000FFFFFFFFFFFFFF00EE
:102CF000000000FFFFFFFFFFFFFFFFFFFF000000DE
:102D000000000000000000000000000000000000C3
:102D100000000000000000000000000000000000B3
:102D200000000000000000000000000000000000A3
:102D30000000000000000000000000000000000093
:102D400000000000000000000000004103F7004107
:102D500003FA1041029C0041020C00410291004123
:102D6000020B00410290014102BC0041029F004160
:102D7000027E0041028F004102B80041021400416E
:102D800002A00041028200410027004102B7004139
:102D900002DE00410210004102A1004102A70041F1
:102DA00000280041036500410366004202DF000085
:102DB0004102E1004102E3004102E20041036700F9
:102DC0004102E41041036B00009002FBE0FF64103D
:102DD000606FEF6420706A9002FB7430F07F011224
:102DE00033A69003CCE0FEA3E0FF9003AEE0FCA38B
:102DF000E0C39FFFEC9EFECDEFCDFC120B217B6666
:102E00007A6679487842120A7F7BE17A7A79147877
:102E100040120885E4FBFA79C878421209769003DB
:102E2000CE120E219003CE122604120B5ACDEFCDF6
:102E3000CCEECCEC9002FDF0EFA3F09002FB74100E
:102E4000F022900210E014602514602C14604D24D0
:102E50000370623088619002107402F07F0B123EA2
:102E60008412081E9000287401F07599372220887A
:102E7000469002A77401F0227F0B12381FEF600307
:102E800012122C20883112122C9002107403F09030
:102E900002A17401F00F123E8402081E7F0C12384A
:102EA0001FEF60137F0C123E849002107401F0E457
:102EB0009002A1F02280FE229003FAE0FFB41014E9
:102EC0009002FC7410F0900291E064017052F05393
:102ED000AAF7804CEF64207047900290E064017084
:102EE000259002FC7420F09002917401F0902ECB9A
:102EF000E4F043AA08123DCF758601758A50538AC3
:102F0000EFE4F58D800B902ECBE4F0123E757586C4
:102F100001758B03758EFF758DE0902ECB74F4F0E8
:102F2000758DE022902EC0E4F0902ECB74F4F090DA
:102F30002F58E0540F2450902EC8F0902ECC744897
:102F4000F0902EC97428F0A3743FF0902E40748145
:102F500012106B12106B0412106B7404F0A37482C5
:102F6000F0A37402F0A3F0902EC67414F0902EC15A
:102F70007490F0A37401F0A37420F0A37409F043DB
:102F8000E310123E0E900026EFF0229003D5740855
:102F9000F0A3E4F0A3743FF0A374DFF0E4FDFCF9C8
:102FA000758A10538AEF0000009003D5E0FEA3E07D
:102FB0001238ECFF69F90DBD00010CBC37EBBDDF29
:102FC000E89003D7E0FEA3E0F5828E83E493697076
:102FD000089002E6740CF08005E49002E6F0758A31
:102FE00050538AEF00000022C0E0C0F0C083C082CE
:102FF000C0D0E8C0E0ECC0E0EDC0E0EEC0E0EFC063
:10300000E0D2AF90020CE004F0C3940A4017E4F061
:10301000120EA32401FFE43EFEE43DFDE43CFC90DF
:1030200002C9120E21D0E0FFD0E0FED0E0FDD0E0DA
:10303000FCD0E0F8D0D0D082D083D0F0D0E0329075
:1030400003D5EFF0C3940D5042E0FF24281211572E
:10305000E06038EF25E025E02438F582E434021200
:103060000E961210109003D5E025E024FDF582E4C1
:103070003430F583120EFC400F9003D5E02428F580
:1030800082E434021210E5227F00227F00227F00BA
:103090007E08E4FDFC9003D5F0A3F0758A10538AF6
:1030A000EF000000EF1238ECFB9003D6E02BF0901D
:1030B00003D5E03400F00DBD00010CBC37E6BDE0E7
:1030C000E39003D5E0FCA3E0FDEC900300F0EDA35A
:1030D000F0758A50538AEF000000229003D7E0FB7E
:1030E000A3E0FAA3E0F922900366E0FF04F08F82E8
:1030F000758300227F00FEF0A3EFF022FDEDFFEECE
:10310000F0A3EFF0229003D67401F0222DF582EEA9
:103110003CF583E493227401F090036722E92FF9D0
:10312000E43AFA020BDBCBEFCBEB7013120F0AE0A1
:1031300090033DF0120F1EA3E090033E1212ABEB82
:1031400064017013120F0AE0900335F0120F1EA3F2
:10315000E09003361212ABEB64027013120F0AE018
:10316000900339F0120F1EA3E090033A1212AB2223
:103170009003F9E0604390027A1212EB949EEE9471
:1031800016500EEF94CEEE940E40069003F874871E
:10319000F09002091212EB9412EE941F500EEF946D
:1031A00042EE941740069003F87487F0E49003F918
:1031B000F09003F8E09002EBF0227E007F807D002B
:1031C0007B017A0279E5120E6AE49002ECF090023B
:1031D000E6740CF09002F774ABF09002F97498F07A
:1031E0009003F6E09002E9F09003F5E09002EAF037
:1031F0009003F8E09002EBF00231B990027CE0FE1F
:10320000A3E0FFC3900376E09F900375E09E500417
:10321000E4F0A3F09003771226BB90030DF0EDA32A
:10322000F09003751226BB90030FF0EDA3F090030E
:10323000711226BB900313F0EDA3F0229003F1EF7F
:10324000F0E0FF24CF12116DE06029EF25E025E0CA
:1032500024D2F582E43402120E9612101090310935
:10326000120EFC400F9003F1E024CFF582E434020B
:103270001210E5227F00229003F0EFF0E0FF24A877
:10328000121178E06029EF25E025E024ABF582E417
:103290003402120E9612101090310B120EFC400FD9
:1032A0009003F0E024A8F582E434021210E5227FB6
:1032B00000229003D7EFF0E0FF2411121183E060A9
:1032C00029EF25E025E02415F582E43402120E965C
:1032D0001210109030FF120EFC400F9003D7E02424
:1032E00011F582E434021210E5227F00229003D708
:1032F000EFF0E0FF24B91211A4E06029EF25E025EA
:10330000E024BDF582E43402120E961210109031C2
:1033100003120EFC400F9003D7E024B9F582E43489
:10332000021210E5227F002212086653A87F123095
:1033300026123C6243A880123F14123E5D12084ED2
:10334000123DF1EF24E0600A2410700AC283C282A9
:103350008004D283D282121E83123698122AEF8002
:10336000DF9003F1EFF0E0FF247F121162E06026AE
:10337000EF25E025E02483F582E43402120E9690D6
:103380003101120EF0400F9003F1E0247FF582E44A
:1033900034021210E5227F00229003D7EFF0E0FF05
:1033A000240E12118EE06023EF25E025E02415F5B0
:1033B00082E43400120E96120EED400F9003D7E017
:1033C000240EF582E434001210E5227F00229003DF
:1033D000D7EFF0E0FF2435121199E06023EF25E0EC
:1033E00025E0246CF582E43402120E96120EED40B4
:1033F0000F9003D7E02435F582E434021210E52261
:103400007F0022E4FFFE900026E0FDEEC39D501CED
:10341000120FC6E0FCA3E0FDEE120FC7E0FAA3E036
:10342000D39DEA9C4003CFEECF0E80DA900204EFEA
:10343000F022CBEFCBCAEECA900006E0701B9000E2
:10344000067401F0120EA3FF900007120E21CFEBBD
:10345000CF900278EAF0A3EFF022CBEFCBCAEECA0E
:1034600090000DE0701B90000D7401F0120EA3FF90
:10347000900011120E21CFEBCF900298EAF0A3EF4B
:10348000F0229003687401F0A37402F0A374E5F0D5
:10349000E4F5DA75DA4043DA2075D74075DA584337
:1034A000A90875B80875F8082290000DE0601D9015
:1034B0000011120E98121010900298E0FEA3E01274
:1034C0000F024008E490000DF07F01227F002212DD
:1034D00010A6501E12115FE0701812115F7401F0F7
:1034E000120EA31210DE2483F582E43402F5831257
:1034F0000E21221210A6501E12116AE0701812112D
:103500006A7401F0120EA31210DE24D2F582E434A4
:1035100002F583120E21221210A6501E121175E020
:1035200070181211757401F0120EA31210DE24AB84
:10353000F582E43402F583120E21221210A6501EE9
:10354000121180E070181211807401F0120EA31293
:1035500010DE2415F582E43402F583120E212212C6
:1035600010A6501E12118BE0701812118B7401F00E
:10357000120EA31210DE2415F582E43400F5831236
:103580000E21221210A6501E121196E07018121170
:10359000967401F0120EA31210DE246CF582E4344E
:1035A00002F583120E21221210A6501E1211A1E064
:1035B00070181211A17401F0120EA31210DE24BDB6
:1035C000F582E43402F583120E2122900006E060B9
:1035D0001BA3120E98121010900278E0FEA3E012C6
:1035E0000F024008E4900006F07F01227F00229045
:1035F00003F7E0701BE4F58D758B02758EC1758D38
:10360000A0F586438A84E5DB20E205758703000088
:1036100022E4FD9002E1E060119002E5E0FE54F04A
:10362000FDEE540FF0E49002E1F0CFEDCF22121244
:1036300088FFFEEE90311993600974A42F12129442
:10364000EEF00F0EEEB410EB22900290E0B4010EFB
:10365000900028E0600512257A8003122F4B122873
:10366000500239DB9002C9120E2D000000007E00CE
:103670007F0D7D007B017A027928020E6A7E007F31
:10368000617D007B017A037971120E6A122C2BE4A2
:1036900090036BF022758B02E4F586F58D75870338
:1036A00000000022EFD3940D500874282F121157F8
:1036B000E4F022EFD394035008747F2F121162E4D8
:1036C000F022EFD39403500874CF2F12116DE4F061
:1036D00022EFD39403500874A82F121178E4F0223B
:1036E000EFD39403500874112F121183E4F022EFEA
:1036F000D394035008740E2F12118EE4F022EFD3EE
:103700009403500874352F121199E4F022EFD394EA
:1037100003500874B92F1211A4E4F022E4900006BB
:10372000F0900278F0A3F022E490000DF09002985F
:10373000F0A3F02212370490020D7401F0022D451F
:10374000EE30E707C3E49FFFE49EFE220000000086
:103750000000000000000000000000000000000069
:103760000000000000000000000000000000000059
:103770000000000000000000000000000000000049
:103780000000000000000000000000000000000039
:103790000000000000000000000000000000000029
:1037A0000000000000000000000000000000000019
:1037B0000000000000000000000000000000000009
:1037C00000000000000000000000000000000000F9
:1037D00000000000000000000000000000000000E9
:1037E00000000000000000000000000000000000D9
:1037F000000000000000000000000000000000F4D5
:1038000000000000000000000000000000000000B8
:1038100000000000000000000000000000000000A8
:00000001FF
